{
  "transactions": [
    {
      "hash": "0x3a2a8d78e18233e34f30cd6add0e9467279e93be5fcd8f3e6efbd0017e0c9c43",
      "transactionType": "CALL",
      "contractName": null,
      "contractAddress": "0x779877a7b0d9e8603169ddbd7836e478b4624789",
      "function": "transferAndCall(address,uint256,bytes)",
      "arguments": [
        "0x9DdfaCa8183c41ad55329BdeeD9F6A8d53168B1B",
        "3000000000000000000",
        "0xcd6ad581e0edac1f544e056983b530dc311e5b6e80dc2a0bb1f13142656e265d"
      ],
      "transaction": {
        "from": "0xc6cd8842eb67684a763fe776843f693bb3e48850",
        "to": "0x779877a7b0d9e8603169ddbd7836e478b4624789",
        "gas": "0x1c1ff",
        "value": "0x0",
        "input": "0x4000aea00000000000000000000000009ddfaca8183c41ad55329bdeed9f6a8d53168b1b00000000000000000000000000000000000000000000000029a2241af62c000000000000000000000000000000000000000000000000000000000000000000600000000000000000000000000000000000000000000000000000000000000020cd6ad581e0edac1f544e056983b530dc311e5b6e80dc2a0bb1f13142656e265d",
        "nonce": "0xec",
        "chainId": "0xaa36a7"
      },
      "additionalContracts": [],
      "isFixedGasLimit": false
    }
  ],
  "receipts": [
    {
      "status": "0x1",
      "cumulativeGasUsed": "0xf06256",
      "logs": [
        {
          "address": "0x779877a7b0d9e8603169ddbd7836e478b4624789",
          "topics": [
            "0xddf252ad1be2c89b69c2b068fc378daa952ba7f163c4a11628f55a4df523b3ef",
            "0x000000000000000000000000c6cd8842eb67684a763fe776843f693bb3e48850",
            "0x0000000000000000000000009ddfaca8183c41ad55329bdeed9f6a8d53168b1b"
          ],
          "data": "0x00000000000000000000000000000000000000000000000029a2241af62c0000",
          "blockHash": "0xdb5f9608ca81e1caa0b036e38e74b7178f5cf1d52805148cb5c96ba3f4130fe3",
          "blockNumber": "0x6ce07f",
          "transactionHash": "0x3a2a8d78e18233e34f30cd6add0e9467279e93be5fcd8f3e6efbd0017e0c9c43",
          "transactionIndex": "0x9c",
          "logIndex": "0xa5",
          "removed": false
        },
        {
          "address": "0x779877a7b0d9e8603169ddbd7836e478b4624789",
          "topics": [
            "0xe19260aff97b920c7df27010903aeb9c8d2be5d310a2c67824cf3f15396e4c16",
            "0x000000000000000000000000c6cd8842eb67684a763fe776843f693bb3e48850",
            "0x0000000000000000000000009ddfaca8183c41ad55329bdeed9f6a8d53168b1b"
          ],
          "data": "0x00000000000000000000000000000000000000000000000029a2241af62c000000000000000000000000000000000000000000000000000000000000000000400000000000000000000000000000000000000000000000000000000000000020cd6ad581e0edac1f544e056983b530dc311e5b6e80dc2a0bb1f13142656e265d",
          "blockHash": "0xdb5f9608ca81e1caa0b036e38e74b7178f5cf1d52805148cb5c96ba3f4130fe3",
          "blockNumber": "0x6ce07f",
          "transactionHash": "0x3a2a8d78e18233e34f30cd6add0e9467279e93be5fcd8f3e6efbd0017e0c9c43",
          "transactionIndex": "0x9c",
          "logIndex": "0xa6",
          "removed": false
        },
        {
          "address": "0x9ddfaca8183c41ad55329bdeed9f6a8d53168b1b",
          "topics": [
            "0x1ced9348ff549fceab2ac57cd3a9de38edaaab274b725ee82c23e8fc8c4eec7a",
            "0xcd6ad581e0edac1f544e056983b530dc311e5b6e80dc2a0bb1f13142656e265d"
          ],
          "data": "0x000000000000000000000000000000000000000000000000000000000000000000000000000000000000000000000000000000000000000029a2241af62c0000",
          "blockHash": "0xdb5f9608ca81e1caa0b036e38e74b7178f5cf1d52805148cb5c96ba3f4130fe3",
          "blockNumber": "0x6ce07f",
          "transactionHash": "0x3a2a8d78e18233e34f30cd6add0e9467279e93be5fcd8f3e6efbd0017e0c9c43",
          "transactionIndex": "0x9c",
          "logIndex": "0xa7",
          "removed": false
        }
      ],
      "logsBloom": "0x00000004000000000000000000000000000000008020000000000000020000000000000000000000000000000000000000000000000000000000000000000080000000400000000000000008000000000000000000000000000020000020000008000000000000000000000000000000000000000000000000000010000040000000000000000000000000010000800000000020000000000000000000000000000000000000000000000000010000000000000000000000000004000000000000800002000000000000000000000000000000000000000100000000000000000090000000000000840000000000000000000000000000000000000000000000",
      "type": "0x2",
      "transactionHash": "0x3a2a8d78e18233e34f30cd6add0e9467279e93be5fcd8f3e6efbd0017e0c9c43",
      "transactionIndex": "0x9c",
      "blockHash": "0xdb5f9608ca81e1caa0b036e38e74b7178f5cf1d52805148cb5c96ba3f4130fe3",
      "blockNumber": "0x6ce07f",
      "gasUsed": "0x133b1",
      "effectiveGasPrice": "0x4176c696",
      "from": "0xc6cd8842eb67684a763fe776843f693bb3e48850",
      "to": "0x779877a7b0d9e8603169ddbd7836e478b4624789",
      "contractAddress": null
    }
  ],
  "libraries": [],
  "pending": [],
  "returns": {},
  "timestamp": 1732355257,
  "chain": 11155111,
  "commit": "3acbbae"
}