{
  "transactions": [
    {
      "hash": "0x4518873dc406d9bfcbbd9caa8bf3925e57f911809a5c7c3362f4403a6bc01e05",
      "transactionType": "CALL",
      "contractName": null,
      "contractAddress": "0x779877a7b0d9e8603169ddbd7836e478b4624789",
      "function": "transferAndCall(address,uint256,bytes)",
      "arguments": [
        "0x9DdfaCa8183c41ad55329BdeeD9F6A8d53168B1B",
        "3000000000000000000",
        "0xcd6ad581e0edac1f544e056983b530dc311e5b6e80dc2a0bb1f13142656e265d"
      ],
      "transaction": {
        "from": "0xc6cd8842eb67684a763fe776843f693bb3e48850",
        "to": "0x779877a7b0d9e8603169ddbd7836e478b4624789",
        "gas": "0x14cbb",
        "value": "0x0",
        "input": "0x4000aea00000000000000000000000009ddfaca8183c41ad55329bdeed9f6a8d53168b1b00000000000000000000000000000000000000000000000029a2241af62c000000000000000000000000000000000000000000000000000000000000000000600000000000000000000000000000000000000000000000000000000000000020cd6ad581e0edac1f544e056983b530dc311e5b6e80dc2a0bb1f13142656e265d",
        "nonce": "0xed",
        "chainId": "0xaa36a7"
      },
      "additionalContracts": [],
      "isFixedGasLimit": false
    }
  ],
  "receipts": [
    {
      "status": "0x1",
      "cumulativeGasUsed": "0x1566a2b",
      "logs": [
        {
          "address": "0x779877a7b0d9e8603169ddbd7836e478b4624789",
          "topics": [
            "0xddf252ad1be2c89b69c2b068fc378daa952ba7f163c4a11628f55a4df523b3ef",
            "0x000000000000000000000000c6cd8842eb67684a763fe776843f693bb3e48850",
            "0x0000000000000000000000009ddfaca8183c41ad55329bdeed9f6a8d53168b1b"
          ],
          "data": "0x00000000000000000000000000000000000000000000000029a2241af62c0000",
          "blockHash": "0x4f7c3d7bc4e0f6a673f349f0e5025692b8cc8799bf43c7be3eccdffdb86bfcb7",
          "blockNumber": "0x6ce092",
          "transactionHash": "0x4518873dc406d9bfcbbd9caa8bf3925e57f911809a5c7c3362f4403a6bc01e05",
          "transactionIndex": "0xde",
          "logIndex": "0xec",
          "removed": false
        },
        {
          "address": "0x779877a7b0d9e8603169ddbd7836e478b4624789",
          "topics": [
            "0xe19260aff97b920c7df27010903aeb9c8d2be5d310a2c67824cf3f15396e4c16",
            "0x000000000000000000000000c6cd8842eb67684a763fe776843f693bb3e48850",
            "0x0000000000000000000000009ddfaca8183c41ad55329bdeed9f6a8d53168b1b"
          ],
          "data": "0x00000000000000000000000000000000000000000000000029a2241af62c000000000000000000000000000000000000000000000000000000000000000000400000000000000000000000000000000000000000000000000000000000000020cd6ad581e0edac1f544e056983b530dc311e5b6e80dc2a0bb1f13142656e265d",
          "blockHash": "0x4f7c3d7bc4e0f6a673f349f0e5025692b8cc8799bf43c7be3eccdffdb86bfcb7",
          "blockNumber": "0x6ce092",
          "transactionHash": "0x4518873dc406d9bfcbbd9caa8bf3925e57f911809a5c7c3362f4403a6bc01e05",
          "transactionIndex": "0xde",
          "logIndex": "0xed",
          "removed": false
        },
        {
          "address": "0x9ddfaca8183c41ad55329bdeed9f6a8d53168b1b",
          "topics": [
            "0x1ced9348ff549fceab2ac57cd3a9de38edaaab274b725ee82c23e8fc8c4eec7a",
            "0xcd6ad581e0edac1f544e056983b530dc311e5b6e80dc2a0bb1f13142656e265d"
          ],
          "data": "0x00000000000000000000000000000000000000000000000029a2241af62c000000000000000000000000000000000000000000000000000053444835ec580000",
          "blockHash": "0x4f7c3d7bc4e0f6a673f349f0e5025692b8cc8799bf43c7be3eccdffdb86bfcb7",
          "blockNumber": "0x6ce092",
          "transactionHash": "0x4518873dc406d9bfcbbd9caa8bf3925e57f911809a5c7c3362f4403a6bc01e05",
          "transactionIndex": "0xde",
          "logIndex": "0xee",
          "removed": false
        }
      ],
      "logsBloom": "0x00000004000000000000000000000000000000008020000000000000020000000000000000000000000000000000000000000000000000000000000000000080000000400000000000000008000000000000000000000000000020000020000008000000000000000000000000000000000000000000000000000010000040000000000000000000000000010000800000000020000000000000000000000000000000000000000000000000010000000000000000000000000004000000000000800002000000000000000000000000000000000000000100000000000000000090000000000000840000000000000000000000000000000000000000000000",
      "type": "0x2",
      "transactionHash": "0x4518873dc406d9bfcbbd9caa8bf3925e57f911809a5c7c3362f4403a6bc01e05",
      "transactionIndex": "0xde",
      "blockHash": "0x4f7c3d7bc4e0f6a673f349f0e5025692b8cc8799bf43c7be3eccdffdb86bfcb7",
      "blockNumber": "0x6ce092",
      "gasUsed": "0xf0e5",
      "effectiveGasPrice": "0x148a2f426",
      "from": "0xc6cd8842eb67684a763fe776843f693bb3e48850",
      "to": "0x779877a7b0d9e8603169ddbd7836e478b4624789",
      "contractAddress": null
    }
  ],
  "libraries": [],
  "pending": [],
  "returns": {},
  "timestamp": 1732355485,
  "chain": 11155111,
  "commit": "3acbbae"
}